:1000000067C0000082C0000080C000007EC0000009
:100010007CC000007AC0000078C0000076C00000FC
:1000200074C0000072C0000070C000006EC000000C
:100030006CC0000081C2000068C0000066C0000003
:1000400064C0000062C0000060C000005EC000002C
:100050005CC000005AC0000058C0000056C000003C
:1000600054C0000052C0000050C000004EC000004C
:100070004CC000004AC0000048C0000046C000005C
:1000800044C0000042C0000040C000009003930341
:10009000960399039C039F03A203A503B103B50331
:1000A000B903BD03C103C503C903CD03D103ED03E8
:1000B000F003F303F603F903FC03FF0302040E0449
:1000C000120416041A041E04220426042A042E0410
:1000D00011241FBECFEFD0E4DEBFCDBF11E0A0E002
:1000E000B1E0E0E0F0E100E00BBF02C007900D924C
:1000F000A632B107D9F727E0A6E2B1E001C01D9210
:10010000A336B207E1F7EDD379C77ACFCF93DF9368
:10011000EC0154D540912601509127019E01240FF6
:10012000351F2C3D85E0380758F44217530758F423
:10013000EA01C85DDE4F309327012093260105C0F8
:10014000C0E0D0E002C0C0E0D0E0FFD5CE01DF913A
:10015000CF9108950895FC010396928381832FEF38
:100160003FEF348323839683858390878783108230
:100170000895FC01118610860895CF93DF93FC014A
:10018000DB0121813281E9018A819B8113969C9355
:100190008E9312978181928115969C938E931497DA
:1001A0008A819B81EC017D836C83E9017B836A8377
:1001B000728361831996FC93EE93189780818F5F09
:1001C0008083DF91CF910895CF93DF93EB01488136
:1001D00059814F3F2FEF520731F4DC011796ED9113
:1001E000FC91189717C0FC013396DC0115962D91F0
:1001F0003C911697D9012D913C914217530750F02D
:100200000280F381E02DA281B3812D913C914217B0
:100210005307B0F7A281B381BB83AA831596DC9301
:10022000CE931497FD83EC83D383C2839987888709
:10023000FC0120812F5F2083DF91CF910895FC0185
:10024000A281B3818481958115969C938E93149796
:10025000A481B5818281938113969C938E9312978A
:10026000A085B18511968D919C9112978E179F074D
:1002700031F48481958112969C938E931197118607
:1002800010868C9181508C93089531E1FC0130836C
:10029000319722E220833197A3E3A08331976083D3
:1002A0003197708331971082319760E8608331977E
:1002B0001082319762E06083319763E06083319709
:1002C00064E06083319765E06083319766E0608326
:1002D000319767E06083319768E06083319769E028
:1002E0006083319760E1608331973083319732E1E9
:1002F0003083319733E13083319734E13083319764
:1003000035E13083319736E13083319737E13083FF
:10031000319738E13083319739E13083319730E2DA
:100320003083319731E2308331972083319723E254
:1003300020833197408331975083319726E2208381
:10034000319727E22083319728E22083319729E2F1
:100350002083319720E32083319721E32083869700
:100360000895109289008CE7809388008BE0809339
:100370008100EFE6F0E0808182608083A0915F07DA
:10038000B0916007CD91CDBFDD91DEBFFF91EF91C0
:10039000DF91CF91BF91AF919F918F917F916F919D
:1003A0005F914F913F912F911F910F91FF90EF908F
:1003B000DF90CF90BF90AF909F908F907F906F9085
:1003C0005F904F903F902F901F900F900FBE0F9017
:1003D000089581E008950F920FB6F8940F921F923E
:1003E00011242F923F924F925F926F927F928F9241
:1003F0009F92AF92BF92CF92DF92EF92FF920F93B4
:100400001F932F933F934F935F936F937F938F939C
:100410009F93AF93BF93CF93DF93EF93FF93A091FD
:100420005F07B09160070DB60D920EB60D926DD5B7
:10043000A0915F07B0916007CD91CDBFDD91DEBF88
:10044000FF91EF91DF91CF91BF91AF919F918F91EC
:100450007F916F915F914F913F912F911F910F91DC
:10046000FF90EF90DF90CF90BF90AF909F908F90D4
:100470007F906F905F904F903F902F901F900F90C4
:100480000FBE0F9008950F920FB6F8940F921F921F
:1004900011242F923F924F925F926F927F928F9290
:1004A0009F92AF92BF92CF92DF92EF92FF920F9303
:1004B0001F932F933F934F935F936F937F938F93EC
:1004C0009F93AF93BF93CF93DF93EF93FF93A0914D
:1004D0005F07B09160070DB60D920EB60D9274D302
:1004E00014D5A0915F07B0916007CD91CDBFDD918C
:1004F000DEBFFF91EF91DF91CF91BF91AF919F91BF
:100500008F917F916F915F914F913F912F911F91AB
:100510000F91FF90EF90DF90CF90BF90AF909F90A2
:100520008F907F906F905F904F903F902F901F9093
:100530000F900FBE0F900895A6DF18951816190694
:100540009CF440E050E077E063E00BC000002150F5
:10055000310921153105D1F74F5F5F4F4817590712
:1005600019F0272F362FF2CF0895813081F0E1EC7A
:10057000F0E0808188618083E2ECF0E08081866039
:10058000808383E38093C4001092C5000895E9EC52
:10059000F0E0808188618083EAECF0E08081866011
:1005A000808383E38093CC001092CD000895813046
:1005B00029F48091C800882384F008958091C000B8
:1005C0008823ACF4A6ECB0E0E0ECF0E08C918093F2
:1005D000040780818823D4F30895AEECB0E0E8EC02
:1005E000F0E08C918093040780818823D4F30895F0
:1005F000813041F0E0ECF0E080818823ECF78091DD
:10060000C6000895E8ECF0E080818823ECF7809143
:10061000CE00089522E380E090E0FC013197F1F7ED
:10062000FC013197F1F7FC013197F1F72150A9F75F
:100630000895C8ECD0E000EC10E06894CC24C7F832
:10064000D12C0F2EF1E8EF2EF12CF02D0F2EF6E825
:10065000AF2EB12CF02D0F2EF7E88F2EF3E19F2E49
:10066000F02D0F2EF8E86F2E712CF02D0F2EF1E6E5
:100670004F2E512CF02D8881882364F481E0B8DF5F
:100680008093050781E093DF289A809105078033E6
:1006900009F42898F801808188239CF580E0A8DF80
:1006A00080930607299A80E082DF809106078133D4
:1006B00099F48AB180638AB9F6018081826A808365
:1006C000F70180818B618083F50191828082F30143
:1006D000D183C0839FDF14C0823391F48AB18063D9
:1006E0008AB9F6018081826A8083F70180818B61FB
:1006F0008083F50191828082F301518240828ADFFA
:10070000289884E690E0ACD3B6CF8091620790E061
:10071000FC013197E830F105D0F4EA5BFF4F52C499
:1007200081E082B914C083E082B911C082E082B94D
:100730000EC086E082B90BC084E082B908C08CE0AC
:1007400082B905C088E082B902C089E082B980918F
:10075000620790E08930910538F5FC01E25BFF4FBC
:1007600031C481E080936207089582E0809362073C
:10077000089583E080936207089584E08093620780
:10078000089585E080936207089586E0809362076C
:10079000089587E080936207089588E08093620758
:1007A000089581E080936207089580910507813361
:1007B00009F0FFCF309B02C0319BA7DF83E090E0C0
:1007C0004FD3F3CF8091620790E0FC013197E8307E
:1007D000F105D0F4E95AFF4FF5C381E082B914C0A6
:1007E00083E082B911C082E082B90EC086E082B98E
:1007F0000BC084E082B908C08CE082B905C088E0F3
:1008000082B902C089E082B98091620790E08930A4
:10081000910538F5FC01E15AFF4FD4C388E080937D
:100820006207089588E080936207089581E08093CD
:100830006207089582E080936207089583E08093C1
:100840006207089584E080936207089585E08093AD
:100850006207089586E080936207089587E0809399
:100860006207089580910507813321F4319B02C00E
:10087000309BA8DF83E090E0F3D2F4CFAF92BF9239
:10088000CF92DF92EF92FF920F93CF93A12CB12CD6
:10089000C12CD12CE12CF12C082F20E030E045E5D3
:1008A00050E069E071E085ED93E06DD020E030E04C
:1008B00045E550E062E071E082E394E064D020E03E
:1008C00030E045E550E067E171E089E193E05BD01D
:1008D000CF910F91FF90EF90DF90CF90BF90AF90AE
:1008E00008958FEF81B987B984B98AB980EE85B947
:1008F00080ED97E023DE80E038DE81E036DE81E0C7
:1009000056DE80E054DE109262071092610715B83F
:1009100081E0B4DF2AD180E090E00895CF93DF93A7
:10092000EC01E0915F07F0916007938382838091EF
:100930000F0790911007C817D90760F460915F07FF
:100940007091600780912507909126076E5F7F4F19
:100950003BDC16C060915F077091600780912707AC
:10096000909128076E5F7F4F2FDC8091000190915E
:100970000101C817D90720F4D0930101C0930001E9
:10098000DF91CF9108954F925F926F927F928F92F5
:100990009F92AF92BF92CF92DF92EF92FF920F930E
:1009A0001F93CF93DF934C013B015A01290181E250
:1009B00090E0ACDBEC01009709F4C5C0C114D10490
:1009C00009F0BDC0C501A2DB988F8F8B009719F489
:1009D000CE01C0DBB8C0A50165EA70E0F9D281E0C4
:1009E000A81AB1088F89988DA80EB91E48E050E06A
:1009F000B301CE014996F3D218A2102F043008F0AB
:100A000013E01E8B6E01E2E0CE0ED11CC601B1DBFD
:100A1000CE010C96AEDBD987C88784E090E0811BBD
:100A200091099D878C87DB8BCA8BA201B401C5011C
:100A30002CDC99838883E114F10419F0F701D18348
:100A4000C0830FB6F8940F92809111078F5F809347
:100A5000110780915F0790916007892B69F5D0930A
:100A60006007C0935F07809111078130A1F58BE388
:100A700097E071DB84E497E06EDB8DE497E06BDB5D
:100A800086E597E068DB82E397E065DB89E297E043
:100A900062DB8CE197E05FDB83E197E05CDB82E384
:100AA00097E0909328078093270789E297E0909337
:100AB0002607809325070FC080910C0781110BC07A
:100AC000E0915F07F09160078689081720F0D093C6
:100AD0006007C0935F078E8990910E07981710F4F6
:100AE00080930E07909107079F5F9093070790915F
:100AF0000D07981710F480930D0790E09C01220FCA
:100B0000331F220F331F220F331F820F931FB60193
:100B1000855C984F32DB0F900FBE80910C078823C5
:100B200051F0E0915F07F09160078689801728F403
:100B300052DC81E009C081E007C081E005C0D88EA9
:100B4000CF8AC60148CF8FEFDF91CF911F910F91D0
:100B5000FF90EF90DF90CF90BF90AF909F908F90DD
:100B60007F906F905F904F900895AF92BF92CF9219
:100B7000DF92EF92FF920F93A12CB12CC12CD12CBC
:100B8000E12CF12C00E020E030E045E550E061E2AE
:100B900071E08BE497E0F7DE813041F4F8948093C4
:100BA0000C071092100710920F07DBDB0F91FF90DC
:100BB000EF90DF90CF90BF90AF90089580910B079A
:100BC0008F5F80930B0708950F931F93CF93DF934D
:100BD00080910B078111AFC080910F079091100792
:100BE00001969093100780930F0780910F079091C3
:100BF0001007892B99F5809127079091280720915C
:100C000025073091260730932807209327079093D4
:100C1000260780932507809108078F5F8093080738
:100C2000E0912707F09128078081811107C08FEF9D
:100C30009FEF909301018093000110C0E09127077E
:100C4000F09128070580F681E02D0680F781E02DE0
:100C500082819381909301018093000120910F077D
:100C600030911007809100019091010128173907F8
:100C700008F466C0E0912707F09128078081882357
:100C800099F0E0912707F09128070580F681E02D83
:100C9000C681D7818A819B8120910F0730911007EF
:100CA00028173907F8F419C08FEF9FEF90930101CF
:100CB0008093000145C0E0912707F0912807058047
:100CC000F681E02DC681D7818A819B8120910F0713
:100CD000309110072817390728F490930101809369
:100CE00000012EC08E010E5F1F4FC801A8DA8C894B
:100CF0009D89892B19F0CE010C96A1DA8E899091ED
:100D00000D07981710F480930D0790E09C01220FB7
:100D1000331F220F331F220F331F820F931FB8017F
:100D2000855C984F2ADAE0912707F09128078081A7
:100D30008111C1CFB9CF80910A078F5F80930A07D5
:100D4000DF91CF911F910F910895AF92BF92CF92F3
:100D5000DF92EF92FF920F931F93CF93DF930FB623
:100D6000F8940F9280910B07815080930B0780912C
:100D70000B07811163C080911107882309F460C0BB
:100D8000B12C0F2EFCE1EF2EF7E0FF2EF02D0F2EF1
:100D9000F1E2CF2EF7E0DF2EF02DAA24A3942BC092
:100DA000D601ED91FC91C681D781CE010C9647DA30
:100DB0008E010E5F1F4FC80142DA8E8990910D0798
:100DC000981710F480930D0790E09C01220F331FB9
:100DD000220F331F220F331F820F931FB801855C30
:100DE000984FCBD9E0915F07F09160079E89868983
:100DF000981708F0BA2CF70180818111D1CF80912A
:100E00000A07882379F080910A07882391F0DCDEB5
:100E100080910A07815080930A0780910A07811107
:100E2000F6CF07C0F1E0BF1621F0809109078130AD
:100E300049F410920907CFDA81E005C080E003C0D1
:100E400080E001C080E00F900FBEDF91CF911F9135
:100E50000F91FF90EF90DF90CF90BF90AF900895EB
:100E6000CF93DF93EC01009791F0A8DE80910F07FC
:100E700090911007C80FD91F80915F07909160076C
:100E80000296DDD9CE014ADD60DF811101C0A3DA0F
:100E9000DF91CF9108950F2EF3E1EF2EF7E0FF2EB3
:100EA000F02D0F2EF8E1CF2EF7E0DF2EF02DCBE363
:100EB000D7E080911207882319F180DED7011C91B9
:100EC00044DF1123E9F00FB6F8940F92D601ED91AB
:100ED000FC9106811781C8010296B1D98091110752
:100EE00081508093110780911207815080931207DF
:100EF0000F900FBEF8018789908D2CD9C8012AD98F
:100F000088818230B0F267DAD4CF80910B078111EB
:100F100013C080910D0790E0FC01EE0FFF1FEE0F54
:100F2000FF1FEE0FFF1F8E0F9F1FFC01E55CF84FA8
:100F30008081882329F01BC081E0809309070895F0
:100F400080910D07815080930D0780910D0790E0EF
:100F5000FC01EE0FFF1FEE0FFF1FEE0FFF1F8E0FA6
:100F60009F1FFC01E55CF84F8081882349F3E091E5
:100F70000D07F0E0CF01880F991F880F991F880F88
:100F8000991FE80FF91FE55CF84FA181B281129615
:100F90000D90BC91A02DB283A183CF010396A81719
:100FA000B90731F412968D919C91139792838183A6
:100FB0000180F281E02D8681978190936007809374
:100FC0005F070895EE0FFF1F0590F491E02D09943F
:100FD000DC0101C06D9341505040E0F70895FB01E2
:100FE000DC014150504048F001900D920020C9F7BB
:100FF00001C01D9241505040E0F70895F894FFCF92
:10100000FFFF436F756E746572436C6F636B776936
:1010100073655461736B00536572766F5461736BC3
:061020000049444C4500AC
:00000001FF
