S00E00006D61737465722E737265638A
S113000045C0000061C000005FC000005DC000008A
S11300105BC0000059C0000057C0000055C000007C
S113002053C0000051C000004FC000004DC000008C
S11300304BC00000FFC5000047C0000045C00000E1
S113004043C0000041C000003FC000003DC00000AC
S11300503BC0000039C0000037C0000035C00000BC
S113006033C0000031C000002FC000002DC00000CC
S11300702BC0000029C0000027C0000025C00000DC
S113008023C0000021C000001FC0000011241FBEB7
S1130090CFEFD0E4DEBFCDBF13E0A0E0B1E0E4E1F8
S11300A0F3E100E00BBF02C007900D92A433B10747
S11300B0D9F729E0A4E3B3E001C01D92A337B20746
S11300C0E1F744D40C9488099BCFCF93DF93EC01E0
S11300D003D740913403509135039E01240F351FFB
S11300E02C3D85E0380758F44217530758F4EA01C9
S11300F0CA5CDC4F309335032093340305C0C0E061
S1130100D0E002C0C0E0D0E0AED7CE01DF91CF9105
S113011008950895FC010396928381832FEF3FEFA6
S113012034832383968385839087878310820895FD
S1130130FC01118610860895CF93DF93FC01DB0147
S113014021813281E9018A819B8113969C938E934C
S113015012978181928115969C938E9314978A812C
S11301609B81EC017D836C83E9017B836A837283C9
S113017061831996FC93EE93189780818F5F808337
S1130180DF91CF910895CF93DF93EB01488159819B
S11301904F3F2FEF520731F4DC011796ED91FC919C
S11301A0189717C0FC013396DC0115962D913C91EC
S11301B01697D9012D913C914217530750F00280B4
S11301C0F381E02DA281B3812D913C914217530715
S11301D0B0F7A281B381BB83AA831596DC93CE9337
S11301E01497FD83EC83D383C28399878887FC01AA
S11301F020812F5F2083DF91CF910895FC01A2819C
S1130200B3818481958115969C938E931497A481D0
S1130210B5818281938113969C938E931297A085C6
S1130220B18511968D919C9112978E179F0731F489
S11302308481958112969C938E93119711861086D2
S11302408C9181508C9308958FEE82B90000009BAD
S113025029C0019B29C0029B29C0039B29C08FEDA3
S113026082B90000009B26C0019B26C0029B26C0C9
S1130270039B26C08FEB82B90000009B23C0019B27
S113028023C0029B23C0039B23C08FE782B90000D5
S1130290009B20C0019B20C0029B20C0039920C06A
S11302A084E4089581E3089584E3089587E3089539
S11302B08AE2089582E3089585E3089588E3089522
S11302C080E3089583E3089586E3089589E3089518
S11302D083E2089581E4089582E4089583E408950F
S11302E080E00895181619069CF440E050E077E089
S11302F063E00BC000002150310921153105D1F70D
S11303004F5F5F4F4817590719F0272F362FF2CF49
S113031008955F9888B95E9A00005E9882E090E044
S1130320E1CF089581E0F5CF089584E690E0DADF27
S113033088E3EFDF86E0EDDF8FE0EBDF81E0E9DFEC
S11303408AE090E0CFCF08955F9A88B95E9A000062
S11303505E9881E090E0C6CF0895813118F4815809
S1130360D8CF08958155D5CF08950F931F93CF9378
S1130370DF93182FEB01D6DF8881882359F001E041
S1130380010F812FEADF8991DFDF8881882311F053
S1130390102FF5CFDF91CF911F910F9108958130E8
S11303A081F0E1ECF0E0808188618083E2ECF0E0B0
S11303B080818660808383E38093C4001092C500AB
S11303C00895E9ECF0E0808188618083EAECF0E054
S11303D080818660808383E38093CC001092CD007B
S11303E00895813029F48091C800882384F0089509
S11303F08091C0008823ACF4A6ECB0E0E0ECF0E01F
S11304008C918093120980818823D4F30895AEECF3
S1130410B0E0E8ECF0E08C918093120980818823AD
S1130420D4F30895613041F0E0ECF0E0908195FF61
S1130430FDCF8093C6000895E8ECF0E0908195FF2D
S1130440FDCF8093CE000895813041F0E0ECF0E0E0
S113045080818823ECF78091C6000895E8ECF0E0F1
S113046080818823ECF78091CE000895EDDE80939F
S1130470170991E0811101C090E0892F0895F6DFFA
S1130480811103C0F3DF8823E9F3809117090895EC
S1130490CF92DF92EF92FF920F931F93CF93DF934C
S11304A0D12CE12CC12CFC2CA9C06091520170917B
S11304B0530181E05ADF88EE93E014DF6091130961
S11304C070911409660F771F660F771F660F771FE9
S11304D0665F7E4F81E049DF88EE93E003DF0091A1
S11304E00001109101010C0F1D1FC9DFF801808369
S11304F02196C430D105C9F66091000170910101C3
S113050081E033DF88EB9BE0EDDE609102017091C6
S1130510030181E02ADF88EB9BE0E4DEA091000187
S1130520B0910101E0910201F09103012D2D3E2DC6
S113053041E09D91819198134F2D2F5F3F4F2430BF
S11305403105B9F7442301F181E080931509289A14
S113055080910401813311F42A9A01C029988C2DC9
S113056040DF609158017091590181E0FEDE88EB13
S11305709BE0B8DE609156017091570181E0F5DE91
S113058088EB9BE0AFDE3AC0609154017091550155
S113059081E0EBDE88EB9BE0A5DE8091130990916E
S11305A014090396843091052CF4909314098093D4
S11305B013090CC083709078992324F401978C6FED
S11305C09F6F0196909314098093130980911309E6
S11305D0909114099C01220F331F220F331F280FFF
S11305E0391F265D3E4F3093030120930201FC0125
S11305F0EB5FFE4F8081809304014ADF80911509EF
S1130600811103C0CD2DDE2D50CFDF91CF911F91ED
S11306100F91FF90EF90DF90CF9008958091720931
S1130620813009F05BC08091C000882314F580916B
S1130630160981111EC008DF80931609299A80E0EB
S1130640D0DE80911509811109C080911609882393
S113065009F444C02B9A109216090BC08091160914
S1130660882359F080910401813339F02B9A109238
S1130670160980911509882389F1E0ECF0E0808166
S113068085FFFDCF60E081E3CDDE2A9A2B98E0EC74
S1130690F0E0808186FFFDCF80E0A3DE8091150924
S11306A08823E1F0809116098823C1F09091040118
S11306B09133A1F4E8ECF0E0908195FFFDCF61E087
S11306C0B1DE2A9AE8ECF0E0808186FFFDCF81E07C
S11306D088DE1092160985B1897F85B980917209E7
S11306E0882319F0813039F004C081E080937209C5
S11306F0089510927209089591DF88EE93E03ED533
S1130700FBCF8091130990911409039684309105CD
S11307102CF490931409809313090CC0837090787F
S1130720992324F401978C6F9F6F01969093140979
S11307308093130980911309909114099C01220F4D
S1130740331F220F331F280F391F265D3E4F30936E
S1130750030120930201FC01EB5FFE4F8081809333
S113076004010895609140017091410181E0FDDD33
S113077080ED97E0B7DD60913E0170913F0181E02B
S1130780F4DD80ED97E0AEDD7ADE813451F46091E2
S11307904C0170914D0181E0E8DD80ED97E0A2CD40
S11307A008956DDE823451F460914A0170914B01D9
S11307B081E0DBDD80ED97E095CD089560DE833444
S11307C051F4609148017091490181E0CEDD80EDE2
S11307D097E088CD089553DE843451F46091460146
S11307E07091470181E0C1DD80ED97E07BCD0895F4
S11307F046DE8332C9F410921509E0ECF0E0808102
S113080085FFFDCF60E080E30DDE2A9AE0ECF0E0A6
S1130810808186FFFDCF80E0E4DD109216092898E0
S11308202A986FDF35CE08952ADE803349F560912A
S113083050017091510181E098DD80ED97E052DD27
S113084060914E0170914F0181E08FDD80ED97E062
S113085049DD80910401813351F46091420170912A
S1130860430181E082DD80ED97E03CCD0895609105
S113087044017091450181E078DD80ED97E032CD4F
S1130880089580911509811101C002DE6BCF08958E
S1130890F8DF8FE090E072D4FBCF809115098111CD
S11308A0FFCF2FDF88E99AE369D4F7CFAF92BF92E5
S11308B0CF92DF92EF92FF920F93CF93A12CB12CA2
S11308C0C12CD12CE12CF12C082F20E030E045E59F
S11308D050E062E671E08DE494E0E3D120E030E0A2
S11308E045E550E063E771E088E494E0DAD120E084
S11308F030E045E550E06BE771E08CE793E0D1D15F
S1130900CF910F91FF90EF90DF90CF90BF90AF9079
S1130910089560915E0170915F0181E026DD88EBAE
S11309209BE0E0DC60915C0170915D0181E01DDD84
S113093088EB9BE0D7DC60915A0170915B0181E008
S113094014DD88EB9BE0CEDCA3CD089580EF81B964
S11309508FE082B98FEF84B915B887B918B88AB90E
S11309601BB880E01CDD81E01ADD80E03ADD81E027
S113097038DDDBDCCEDF81E08093720997DF83D240
S113098080E090E0089531E1FC013083319722E268
S113099020833197A3E3A0833197608331977083D9
S11309A031971082319760E86083319710823197D4
S11309B062E06083319763E06083319764E0608331
S11309C0319765E06083319766E06083319767E033
S11309D06083319768E06083319769E06083319781
S11309E060E1608331973083319732E1308331970E
S11309F033E13083319734E13083319735E130830B
S1130A00319736E13083319737E13083319738E1DC
S1130A103083319739E13083319730E23083319735
S1130A2031E2308331972083319723E22083319759
S1130A30408331975083319726E22083319727E210
S1130A402083319728E22083319729E2208331974C
S1130A5020E32083319721E3208386970895109221
S1130A6089008CE7809388008BE080938100EFE617
S1130A70F0E0808182608083A0917009B091710957
S1130A80CD91CDBFDD91DEBFFF91EF91DF91CF918D
S1130A90BF91AF919F918F917F916F915F914F9192
S1130AA03F912F911F910F91FF90EF90DF90CF9086
S1130AB0BF90AF909F908F907F906F905F904F907A
S1130AC03F902F901F900F900FBE0F90089581E0DC
S1130AD008950F920FB6F8940F921F9211242F923B
S1130AE03F924F925F926F927F928F929F92AF92BA
S1130AF0BF92CF92DF92EF92FF920F931F932F93A7
S1130B003F934F935F936F937F938F939F93AF9391
S1130B10BF93CF93DF93EF93FF93A0917009B091AC
S1130B2071090DB60D920EB60D927FD3A091700986
S1130B30B0917109CD91CDBFDD91DEBFFF91EF91F1
S1130B40DF91CF91BF91AF919F918F917F916F91E1
S1130B505F914F913F912F911F910F91FF90EF90D3
S1130B60DF90CF90BF90AF909F908F907F906F90C9
S1130B705F904F903F902F901F900F900FBE0F905B
S1130B8008950F920FB6F8940F921F9211242F928A
S1130B903F924F925F926F927F928F929F92AF9209
S1130BA0BF92CF92DF92EF92FF920F931F932F93F6
S1130BB03F934F935F936F937F938F939F93AF93E1
S1130BC0BF93CF93DF93EF93FF93A0917009B091FC
S1130BD071090DB60D920EB60D9284D126D3A09153
S1130BE07009B0917109CD91CDBFDD91DEBFFF9148
S1130BF0EF91DF91CF91BF91AF919F918F917F91B1
S1130C006F915F914F913F912F911F910F91FF90A1
S1130C10EF90DF90CF90BF90AF909F908F907F9098
S1130C206F905F904F903F902F901F900F900FBE4A
S1130C300F900895A6DF1895CF93DF93EC01E09110
S1130C407009F091710993838283809120099091B6
S1130C502109C817D90760F460917009709171096E
S1130C6080913609909137096E5F7F4F8CDA16C0F8
S1130C7060917009709171098091380990913909D6
S1130C806E5F7F4F80DA8091600190916101C81797
S1130C90D90720F4D0936101C0936001DF91CF9113
S1130CA008954F925F926F927F928F929F92AF922C
S1130CB0BF92CF92DF92EF92FF920F931F93CF9345
S1130CC0DF934C013B015A01290181E290E0FDD9F7
S1130CD0EC01009709F4C5C0C114D10409F0BDC0EA
S1130CE0C501F3D9988F8F8B009719F4CE0111DACF
S1130CF0B8C0A50165EA70E0F5D281E0A81AB10890
S1130D008F89988DA80EB91E48E050E0B301CE013A
S1130D104996EFD218A2102F043008F013E01E8B6E
S1130D206E01E2E0CE0ED11CC60102DACE010C96B1
S1130D30FFD9D987C88784E090E0811B91099D87FA
S1130D408C87DB8BCA8BA201B401C5011CDE99839D
S1130D508883E114F10419F0F701D183C0830FB63D
S1130D60F8940F92809122098F5F809322098091D9
S1130D70700990917109892B69F5D0937109C09319
S1130D807009809122098130A1F58CE499E0C2D9DF
S1130D9085E599E0BFD98EE599E0BCD987E699E06D
S1130DA0B9D983E499E0B6D98AE399E0B3D98DE25D
S1130DB099E0B0D984E299E0ADD983E499E09093C5
S1130DC03909809338098AE399E09093370980932D
S1130DD036090FC080911D0981110BC0E091700983
S1130DE0F09171098689081720F0D0937109C09396
S1130DF070098E8990911F09981710F480931F0928
S1130E00909118099F5F9093180990911E09981763
S1130E1010F480931E0990E09C01220F331F220FCF
S1130E20331F220F331F820F931FB601845B964F2B
S1130E3083D90F900FBE80911D09882351F0E09152
S1130E407009F09171098689801728F442DE81E0E7
S1130E5009C081E007C081E005C0D88ECF8AC601F1
S1130E6048CF8FEFDF91CF911F910F91FF90EF90BB
S1130E70DF90CF90BF90AF909F908F907F906F90B6
S1130E805F904F900895AF92BF92CF92DF92EF920E
S1130E90FF920F93A12CB12CC12CD12CE12CF12C5D
S1130EA000E020E030E045E550E06EE273E089EDDB
S1130EB098E0F7DE813041F4F89480931D09109294
S1130EC0210910922009CBDD0F91FF90EF90DF9064
S1130ED0CF90BF90AF90089580911C098F5F80934D
S1130EE01C0908950F931F93CF93DF9380911C09DE
S1130EF08111AFC0809120099091210901969093AE
S1130F002109809320098091200990912109892B3E
S1130F1099F58091380990913909209136093091D9
S1130F20370930933909209338099093370980930E
S1130F303609809119098F5F80931909E091380966
S1130F40F09139098081811107C08FEF9FEF909351
S1130F5061018093600110C0E0913809F091390972
S1130F600580F681E02D0680F781E02D8281938152
S1130F7090936101809360012091200930912109AF
S1130F8080916001909161012817390708F466C0C7
S1130F90E0913809F09139098081882399F0E09132
S1130FA03809F09139090580F681E02DC681D78191
S1130FB08A819B81209120093091210928173907C2
S1130FC0F8F419C08FEF9FEF909361018093600153
S1130FD045C0E0913809F09139090580F681E02D8A
S1130FE0C681D7818A819B81209120093091210972
S1130FF02817390728F490936101809360012EC06B
S11310008E010E5F1F4FC801F9D88C899D89892BE9
S113101019F0CE010C96F2D88E8990911E0998177A
S113102010F480931E0990E09C01220F331F220FBD
S1131030331F220F331F820F931FB801845B964F17
S11310407BD8E0913809F091390980818111C1CFB1
S1131050B9CF80911B098F5F80931B09DF91CF91DA
S11310601F910F910895AF92BF92CF92DF92EF92AA
S1131070FF920F931F93CF93DF930FB6F8940F92C1
S113108080911C09815080931C0980911C09811155
S113109063C080912209882309F460C0B12C0F2E0B
S11310A0FDE2EF2EF9E0FF2EF02D0F2EF2E3CF2E0E
S11310B0F9E0DF2EF02DAA24A3942BC0D601ED91E4
S11310C0FC91C681D781CE010C9698D88E010E5F13
S11310D01F4FC80193D88E8990911E09981710F458
S11310E080931E0990E09C01220F331F220F331FAF
S11310F0220F331F820F931FB801845B964F1CD8B5
S1131100E0917009F09171099E898689981708F019
S1131110BA2CF70180818111D1CF80911B098823DA
S113112079F080911B09882391F0DCDE80911B0902
S1131130815080931B0980911B098111F6CF07C050
S1131140F1E0BF1621F080911A09813049F4109220
S11311501A09BFDC81E005C080E003C080E001C063
S113116080E00F900FBEDF91CF911F910F91FF9000
S1131170EF90DF90CF90BF90AF900895CF93DF931F
S1131180EC01009791F0A8DE80912009909121094B
S1131190C80FD91F809170099091710902962ED8B9
S11311A0CE014ADD60DF811101C093DCDF91CF9174
S11311B008950F2EF4E2EF2EF9E0FF2EF02D0F2EFE
S11311C0F9E2CF2EF9E0DF2EF02DCCE4D9E08091C6
S11311D02309882329F180DED7011C9144DF1123E0
S11311E0F9F00FB6F8940F92D601ED91FC910681B7
S11311F01781C801029602D88091220981508093F8
S11312002209809123098150809323090F900FBEF6
S1131210F8018789908D0E948900C8010E94890085
S113122088818230A0F255DCD2CF80911C098111D3
S113123013C080911E0990E0FC01EE0FFF1FEE0F1A
S1131240FF1FEE0FFF1F8E0F9F1FFC01E45BF64F85
S11312508081882329F01BC081E080931A090895B6
S113126080911E09815080931E0980911E0990E08F
S1131270FC01EE0FFF1FEE0FFF1FEE0FFF1F8E0F7F
S11312809F1FFC01E45BF64F8081882349F3E091C2
S11312901E09F0E0CF01880F991F880F991F880F4E
S11312A0991FE80FF91FE45BF64FA181B2811296F2
S11312B00D90BC91A02DB283A183CF010396A817F2
S11312C0B90731F412968D919C911397928381837F
S11312D00180F281E02D868197819093710980933A
S11312E070090895DC0101C06D9341505040E0F74E
S11312F00895FB01DC014150504048F001900D92EB
S11313000020C9F701C01D9241505040E0F70895F4
S1071310F894FFCF7B
S113131489018E013131303130004B65793A203105
S113132400004B65793A203200004B65793A20334A
S113133400004B65793A20340000343536370041D7
S11313444243440036373637003938373600930180
S1131354AF01CF01ED010A022602460265028402AE
S1131364ED019B02B802D002DA02E902FA02150383
S1131374FFFF7570646174655F63726564735461BF
S1131384736B00534D5F4D656E75004C6561646508
S1131394725365635461736B00202020200034353C
S11313A4363700412C422C432C4420466F7220547F
S11313B45620496E707574204368616E6765002316
S11313C420746F204C6F676F7574202020202030A8
S11313D420746F20736565206163636573730031E2
S11313E43A20766F6C2F696E70757420616E642078
S11313F46C6F636B20636F6E74726F6C00303A2091
S1131404766F6C756D652F696E70757420636F6E7D
S113141474726F6C206F6E6C7900545620496E7030
S11314247574206368616E676564202020202074CD
S11314346F2052474200545620496E7075742063DD
S113144468616E6765642020202020746F20416EDB
S113145474656E6E6100545620496E707574206311
S113146468616E6765642020202020746F204844DE
S11314744D49203200545620496E707574206368B7
S1131484616E6765642020202020746F2048444DD9
S113149449203100313A2030277320636F6E74720F
S11314A46F6C73202B206C6F636B00456E746572D4
S11314B4204D61746368696E6720202020202050C9
S11314C4617373776F726400496E76616C6964202A
S11314D4506173732C2020206E6577206B6579002E
S11314E44C6F6767656420496E0050617373776F4E
S11314F472642056616C6964006D61746368696E1A
S11315046720746865206B657900506C6561736548
S113151420656E746572202020202020706173730E
S1131524776F726400456E7465727461696E6D657B
S11315346E7420202020436F6E74726F6C004944D3
S10715444C4500000E
S9030000FC
